:020000040800F2
:1000000058990020B902000895160008F911000857
:1000100091160008E1080008AB300008000000005D
:1000200000000000000000000000000021020008A5
:10003000610B00080000000065020008611900085B
:10004000D3020008D3020008D3020008D30200083C
:10005000D3020008D3020008D3020008D30200082C
:10006000D3020008D3020008D3020008D30200081C
:10007000D3020008D3020008D3020008D30200080C
:10008000D3020008D3020008D3020008D3020008FC
:10009000D3020008D3020008D3020008D3020008EC
:1000A000D3020008D3020008D3020008D3020008DC
:1000B000D3020008C52B0008D3020008D3020008B1
:1000C000D3020008D3020008D3020008D3020008BC
:1000D000D3020008892E0008D3020008D3020008CA
:1000E000D3020008D3020008D3020008D30200089C
:1000F000D3020008D3020008D3020008D30200088C
:10010000D3020008D3020008452C0008D3020008DF
:10011000D3020008D3020008D3020008D30200086B
:10012000D3020008D3020008D3020008D30200085B
:1001300000F002F800F065F80AA090E8000C824494
:100140008344AAF10107DA4501D100F05AF8AFF271
:10015000090EBAE80F0013F0010F18BFFB1A43F0A5
:100160000103184738600500586005000A444FF045
:10017000000C10F8013B13F0070408BF10F8014B06
:100180001D1108BF10F8015B641E05D010F8016B4B
:10019000641E01F8016BF9D113F0080F1EBF10F8AF
:1001A000014BAD1C0C1B09D16D1E58BF01F801CBD2
:1001B000FAD505E014F8016B01F8016B6D1EF9D555
:1001C0009142D6D37047000000230024002500266A
:1001D000103A28BF78C1FBD8520728BF30C148BFAA
:1001E0000B607047642900F0F380782900F02C81BF
:1001F000732900F02983002070471FB51FBD10B57B
:1002000010BD00F03BFB1146FFF7F7FF19F0DEFCD5
:1002100000F059FB03B4FFF7F2FF03BC02F047FF05
:10022000224B19680868B0E8F00F80F30988BFF323
:100230006F8F4FF0000080F311884EF00D0E704765
:100240000000000006480068006880F3088862B675
:1002500061B6BFF34F8FBFF36F8F00DF00BF00BFEA
:1002600008ED00E0EFF30980BFF36F8F0F4B1A68C2
:1002700020E9F00F106008B54FF0500080F31188AE
:10028000BFF34F8FBFF36F8F1BF026FD4FF00000C1
:1002900080F31188BDE8084019680868B0E8F00FDD
:1002A00080F30988BFF36F8F704700BF6C00002098
:1002B000EFF3058070470000094880470948004770
:1002C000FEE7FEE7FEE7FEE7FEE7FEE7FEE7FEE706
:1002D000FEE7FEE704480549054A064B7047000063
:1002E0007119000831010008588F0020589900202A
:1002F0005891002058910020704700000FB4044925
:1003000010B503AA029800F0A3FA10BC5DF814FB24
:10031000500000202DE9F0410E46044600202062E6
:100320002046E168884730B3252805D0D4E901216B
:100330009047206A401CF2E7E16820460027884782
:10034000050018D0A5F14100192802D820354FF436
:1003500000673246294620462760FFF743FF40B139
:10036000012804D0F61D26F007060836D8E7361D0A
:10037000D6E72846DAE7206ABDE8F08170B50C467A
:100380000546012A05D02878800600D5EA690023B1
:1003900002E0012305E05B1C934202D2E05C0028EE
:1003A000F9D1A869E618C01AA861286A1844286219
:1003B0002846AFF3008004E0D5E9012114F8010BD1
:1003C0009047B442F8D32846AFF3008070BD0000D8
:1003D0002DE9F0410646002410687529314616A51E
:1003E00010D0AFF30080002802DA404213A507E0E6
:1003F00031688A0701D512A502E0490704D511A585
:10040000012401E0AFF3008000210A2206F1240755
:1004100009E0B0FBF2FCB0FBF2F302FB1C00303051
:1004200078541846491C0028F3D123462A46304602
:10043000BDE8F04100F084B9000000002D0000008C
:100440002B0000002000000070B504460D46214638
:100450001068AFF300802188090502D50F4A7A445D
:1004600002E00E4A7A440E32002104F1240305E032
:1004700000F00F060009965D5E54491C0028F7D174
:1004800020780023000704D5702D02D009B1022383
:1004900011322046BDE8704000F052B9445B0500BF
:1004A00040EA0103024630B59B0710D14FF00134FA
:1004B00000E008C208C91D1B9D4315EAC41FF8D0FF
:1004C00013F0FF0102F8011B0DD01B0AF8E711F829
:1004D000013B002B02F8013B05D011F8013B002B3A
:1004E00002F8013BF3D130BD10B5431C02E010F817
:1004F000011B71B18107FAD14FF0013202C88C1A89
:100500008C4314EAC211F9D0C01A0A0603D0C01EE7
:1005100010BDC01A10BD0A0401D0801E10BD090212
:10052000FCD0401E10BD032A40F2308010F0030CB6
:1005300000F0158011F8013BBCF1020F624498BF36
:1005400011F801CB00F8013B38BF11F8013BA2F1D3
:10055000040298BF00F801CB38BF00F8013B11F04E
:10056000030300F02580083AC0F0088051F8043BEE
:10057000083A51F804CBA0E80810F5E7121D5CBF5B
:1005800051F8043B40F8043BAFF30080D20724BF8E
:1005900011F8013B11F801CB48BF11F8012B24BF22
:1005A00000F8013B00F801CB48BF00F8012B704771
:1005B00010B5203AC0F00B80B1E81850203AA0E8FE
:1005C0001850B1E81850A0E81850BFF4F5AF5FEA32
:1005D000027C24BFB1E81850A0E8185044BF18C9E5
:1005E00018C0BDE810405FEA827C24BF51F8043B8C
:1005F00040F8043B08BF7047D20728BF31F8023BE0
:1006000048BF11F8012B28BF20F8023B48BF00F873
:10061000012B704702F0FF0343EA032242EA024241
:1006200000F002B84FF000020429C0F0128010F070
:10063000030C00F01B80CCF1040CBCF1020F18BFBE
:1006400000F8012BA8BF20F8022BA1EB0C0100F051
:100650000DB85FEAC17C24BF00F8012B00F8012B24
:1006600048BF00F8012B70474FF0000200B5134659
:1006700094469646203922BFA0E80C50A0E80C50C2
:10068000B1F12001BFF4F7AF090728BFA0E80C5073
:1006900048BF0CC05DF804EB890028BF40F8042B6C
:1006A00008BF704748BF20F8022B11F0804F18BFD9
:1006B00000F8012B704700004FF0013C50F8042B6C
:1006C00051F8043B9A4221D1A2EB0C03934313EA65
:1006D000CC1317D150F8042B51F8043B9A4215D192
:1006E000A2EB0C03934313EACC130BD150F8042B69
:1006F00051F8043B9A4209D1A2EB0C03934313EA4D
:10070000CC13DBD04FF00000704700BFD01A01BA05
:10071000B1FA81F101F0180122FA01F0CB40C1F1E8
:100720002001DBB2C0B2C01A2CFA01F3D11A9143F6
:1007300011EAC311E6D170477047704770477047A0
:100740002DE9F0470D4699469246044600F12408EB
:100750000168880604D5E06921F01001216000E0FD
:100760000120A84201DD471B00E00027A1697A199A
:1007700002EB0900081AA0612078C00602D42046C6
:10078000AFF30080002608E0D4E901211AF8060042
:100790009047206A401C761C20624E45F4DB20788E
:1007A000C0060AD52046AFF3008006E0D4E9012157
:1007B00030209047206A401C2062381EA7F10107B4
:1007C000F4DC07E0D4E9012118F805009047206A1D
:1007D000401C2062281EA5F10105F3DC2046AFF382
:1007E00000802078000602D50220BDE8F0870120B5
:1007F000FBE7000001694A1C02610878704700B5F8
:100800008FB0CDE901310021059105497944CDE949
:10081000031011466846FFF77DFD0FB000BD0000D4
:10082000E5FFFFFF10B5436913B1AFF3008001E0AE
:10083000FFF7A4FD012010BD127800F124010A7019
:1008400000224A700122EDE711684FF0FF32E9E71C
:10085000074B70B50D467B44FFF7D1FF0446284691
:1008600000F008F810B14FF0FF3070BD204670BDA9
:100870004B340000007B00F080007047754600F0AC
:100880002BF8AE4605006946534620F00700854622
:1008900018B020B5FFF71EFDBDE820404FF0000660
:1008A0004FF000074FF000084FF0000B21F0070158
:1008B000AC46ACE8C009ACE8C009ACE8C009ACE89B
:1008C000C0098D46704710B50446AFF3008020463E
:1008D000BDE81040FFF79EBC00487047F88E00202E
:1008E00000BFFEE710B5052002F074FF10BD000048
:1008F00010B500200A49086000F01CF9FFF7F2FF6C
:1009000000200849C1F89C01FFF7ECFF01200449D1
:100910000860FFF7E7FF00200249C1F8940110BD0D
:10092000940121420000214208B50121042000F079
:1009300015FF2020ADF8000010208DF803000320E3
:100940008DF8020069460C4800F099F920210A4808
:1009500000F022FA8020ADF8000010208DF803008E
:1009600003208DF802006946034800F088F902214F
:10097000014800F011FA08BD0008014010B5002040
:100980000A49086000F0D6F8FFF7ACFF01200849DB
:10099000C1F89C01FFF7A6FF012004490860FFF79A
:1009A000A1FF00200249C1F8940110BD9401214229
:1009B0000000214270B50546002400F0A5F81E2075
:1009C00002F008FF002612E000200E490860FFF741
:1009D00089FF01200C49C1F894016006040E094802
:1009E0007838006808B1601CC4B2701CC6B2082E0A
:1009F000EADB15B9FFF7C2FF01E0FFF779FF2046F8
:100A000070BD0000940121420000214270B50446EF
:100A100000F090F800200E490860FFF763FF002502
:100A200012E0E0090A49083108606006040E01205E
:100A30000849C1F89401FFF755FF002004490860F8
:100A4000FFF750FF681CC5B2082DEADB70BD00003F
:100A5000940121420000214210B500F06BF8012002
:100A6000084908600849C1F894011E2002F0B2FE4E
:100A7000002004490860FFF735FF00200249C1F853
:100A8000940110BD9C0121420000214210B500F0EC
:100A900051F80120074908601E2002F09BFE00204B
:100AA0000549C1F89C01FFF71DFF012001490831EC
:100AB000086010BD940121420000214210B50024BD
:100AC00000F022F801200E4908600E49C1F8940197
:100AD000FFF708FF09E0601CC4B2FA2C03DDFFF742
:100AE000D5FF012010BDFFF7FDFE054880380068E6
:100AF0000028F0D102490839086000BFF2E7000081
:100B00009C0121420000214208B50121042000F08F
:100B100025FE8020ADF8000048208DF8030003205A
:100B20008DF802006946024800F0A9F808BD0000EF
:100B30000008014008B50121042000F00FFE8020CC
:100B4000ADF8000010208DF8030003208DF802009E
:100B50006946024800F093F808BD00000008014013
:100B60007047000051B18200A2F1C042126842F009
:100B700001038200A2F1C042136009E08200A2F1E9
:100B8000C0421268034B1A408300A3F1C0431A60AD
:100B900070470000FEFF0F00D0E901121143C26848
:100BA0001143026911434269114382691143C269C9
:100BB0001143026A1143426A1143826A1143C26AB5
:100BC0001143026B114302689200A2F1C04211600E
:100BD000816808290BD101688900A1F1C041096829
:100BE00041F0400201688900A1F1C0410A60416BF7
:100BF0000968426B526841EA0211426B926841EA0D
:100C00000221426B928941EA0241426B128A41EA17
:100C10000251426B127D41EA0261426B92691143BB
:100C20000268521C9200A2F1C0421160C16AB1F583
:100C3000804F1BD1816B0968826B526841EA0211B7
:100C4000826B926841EA0221826B128A41EA025168
:100C5000826B127D41EA0261826B926911430268E4
:100C60009200A2F1C042C2F8041107E06FF0704296
:100C700001688900A1F1C041C1F8042170472DE944
:100C8000F041024600250026002000230024002712
:100C900091F803C00CF00F0591F803C00CF0100C94
:100CA000BCF1000F03D091F802C04CEA050591F8A1
:100CB00000C0BCF1000F31D0146800202BE04FF0D1
:100CC000010C0CFA00F3B1F800C00CEA03069E42D6
:100CD00020D183004FF00F0C0CFA03F7BC4305FA48
:100CE00003FC4CEA040491F803C0BCF1280F06D1C0
:100CF0004FF0010C0CFA00FCC2F814C00AE091F8A5
:100D000003C0BCF1480F05D14FF0010C0CFA00FCF8
:100D1000C2F810C0401C0828D1D31460B1F800C03C
:100D2000BCF1FF0F34DD546800202EE000F1080C08
:100D30004FF0010808FA0CF3B1F800C00CEA030602
:100D40009E4221D183004FF00F0C0CFA03F7BC43F5
:100D500005FA03FC4CEA040491F803C0BCF1280F27
:100D600005D100F1080C08FA0CF8C2F8148091F8CB
:100D700003C0BCF1480F07D100F1080C4FF0010887
:100D800008FA0CF8C2F81080401C0828CED3546032
:100D9000BDE8F08141617047016170470EB50121E6
:100DA000102000F0DBFC0121082000F0D7FC10200F
:100DB000ADF800008DF8030003208DF802006946AD
:100DC0003848FFF75CFF10213648FFF7E5FF402069
:100DD000ADF8000048208DF8030069463248FFF75F
:100DE0004EFF40213048FFF7D7FFFFF79DFD002061
:100DF0002E4908600A2002F0CDFC01202C49C1F8E0
:100E000090010A2002F0C6FC4020ADF80000282026
:100E10008DF8030069462448FFF731FF402122483E
:100E2000FFF7B8FF642002F0B5FC042201A948F2E4
:100E3000401000F053F800208DF8080001A91DA013
:100E4000FFF75CFA1EA101A8FFF736FC40BB0220A9
:100E50008DF80400012201A948F2400000F09EF93B
:100E6000012201A948F2470000F038F89DF804007B
:100E7000602807DA9DF8041013A0FFF73FFA01205D
:100E800000F05EF90A2002F085FC00208DF80400D5
:100E9000012201A948F2400000F080F900200EBDB7
:100EA0000120FCE700100140000C014090012242AB
:100EB000000022424354502049443A25730D0A0051
:100EC000393134370000000044656661756C742068
:100ED0005665723A25640D0A000000002DE9F041C4
:100EE00005460F461646FFF7B7FD2820FFF78EFD93
:100EF000FFF7E4FD2812FFF789FDFFF7DFFDE8B2F9
:100F0000FFF784FDFFF7DAFDFFF7A6FD2920FFF7C5
:100F10007DFDFFF7D3FD00240BE0711EA14201D03F
:100F2000012100E000210846FFF744FD3855601C10
:100F3000C4B2B442F1DBFFF7A9FDBDE8F0810000C7
:100F400071B583B00024002679480078401C7849A8
:100F50000870084600780A2190FBF1F201FB1200AC
:100F600018B1734800780A287EDA012203A948F2F2
:100F70004E10FFF7B3FF9DF80C0000F0800068B141
:100F80009DF80C0000F00F00062807DA0020019001
:100F9000012201A948F24E1000F000F99DF80C0062
:100FA00000F00F0000285FD09DF80C0000F00F004B
:100FB0000628D9DA9DF80C0000F00F01FF208840C8
:100FC000C0B201905B4890F820509DF80400C043E7
:100FD000C0B240F0C000574981F82000084681891E
:100FE0008182C18AC183002446E0524890F82000E3
:100FF0000121A140084020B34F4931F814000422D8
:1010000002A9FFF76BFF4B4890F8300000F0010099
:10101000C0B19DF808009DF8091000EB012081B2D5
:101020004448163020F814109DF80A009DF80B1063
:1010300000EB0120C0F5487081B23E480C3020F82A
:10104000141017E09DF808009DF8091000EB01202E
:1010500081B238480C3020F814109DF80A009DF831
:101060000B1000EB012000E036E081B23148163071
:1010700020F81410601CC4B2052CB6DB01262D48E4
:1010800080892E490988884205DC2A48C08A2B4974
:10109000498888421DDD9DF80C0000F00F000128F2
:1010A0000ADD2448C089234988810846008BC8820C
:1010B00000201F4908700FE01E48808A1D49888162
:1010C0000846C08BC88280200390084680F82050D4
:1010D00002E00020164908709DF80C0000F08F0017
:1010E00080281AD1134890F8200000F0800040B109
:1010F000104890F8200020F080000E4981F8200070
:101100000BE04FF6FF700B498881C882084690F8C3
:10111000200000F0E00081F8200005480078F02869
:1011200002DD0A2002490870304604B070BD00009C
:101130001400002018000020C4C20108A0040020F0
:1011400038B50546002400208DF800008DF80150C8
:1011500000BF09E09DF800000F49095D0844C0B2D6
:101160008DF80000601CC4B2B82CF3D39DF80000C9
:10117000C043401CC0B28DF80000B822064948F2B6
:10118000470000F00BF80222694648F2FF0000F029
:1011900005F8002038BD00000CC201082DE9F0411F
:1011A00004460E4617464FF00008FFF755FC28206E
:1011B000FFF72CFCFFF782FC2012FFF727FCFFF75C
:1011C0007DFCE0B2FFF722FCFFF778FC00250BE086
:1011D000705DFFF71BFCFFF771FC8046B8F1000F54
:1011E00000D003E0681CC5B2BD42F1DB00BFFFF7D1
:1011F0004DFC4046BDE8F08100BFFEE72DE9F84F09
:1012000007460D4690469946DDF828B0A8EB070042
:10121000401C1FFA80FAA9EB0500401C80B2009028
:10122000002414E0281981B2384600F0E7F900F0F4
:101230001DFA002607E004FB0A603BF8100006498F
:101240000880701C86B25645F5DB601C84B200989D
:101250008442E7DBBDE8F88F0000026010B5044669
:10126000F4B900201E498871F02008804FF4A07066
:1012700048800846808845F2105188422CD14FF4AE
:101280003050174908814FF4285048814FF42C50B2
:1012900088814FF4F07008804FF4487048801BE05C
:1012A00001200F4988714FF4A0700880084680889B
:1012B00045F2105188420FD14FF43050084908814F
:1012C0004FF4285048814FF42C5088814FF44870D7
:1012D00008804FF4F0704880032000F019F810BD2A
:1012E000A004002008B5034800880090BDF8000065
:1012F00008BD00000000026010B50446204600F062
:10130000AFF9052002F066FAFFF7ECFF10BD000010
:1013100070B5044600230026B748807901280BD118
:10132000B548808846F60401884205D0B2488088D6
:1013300041F66311884208D1AF488079F0B9AE48D0
:10134000808841F66311884218D1082C15D2DFE855
:1013500004F00406080A0C0E101206240DE00724FF
:101360000BE0042409E0052407E0012405E0002443
:1013700003E0032401E0022400BF00BF9E488088F0
:1013800049F24131884217D09B48808846F60401D3
:10139000884211D09848808845F2103188420BD09D
:1013A0009548808845F21051884205D0924880883F
:1013B00041F6631188427DD1082C1CD2DFE804F08D
:1013C0000406090C0F12151800BF14E043F0800347
:1013D00011E043F040030EE043F0C0030BE043F0A4
:1013E000200308E043F0600305E043F0A00302E0BF
:1013F00043F0E00300BF00BF7F48808845F21051F2
:10140000884202D14FF4585600E036267A48808848
:1014100045F2103188420DD07748808845F210514E
:10142000884207D07448808841F66311884201D011
:1014300043F008037048808846F60401884201D1D1
:1014400043F002031946304600F01AF96A488088D2
:1014500041F6631188421DD003F0200068B1664850
:10146000008865494988884214DA634805884088BD
:1014700061490880084645800CE05F4800885E4965
:101480004988884206DD5C48058840885A490880BA
:10149000084645805848808845F21051884254D10A
:1014A0005549488900F0DCF8002000F0D3F8524993
:1014B000498900E078E0491C88B200F0D1F80020AA
:1014C00000F0C8F84C494989891C88B200F0C8F876
:1014D00049490988491EC1F30F2000F0BBF846496D
:1014E0004989C91C88B200F0BBF843490978491EF4
:1014F000C8B200F0AFF84049888900F0B1F8002088
:1015000000F0A8F83C498989491C88B200F0A8F885
:10151000002000F09FF838498989891C88B200F0C2
:101520009FF835494988491EC1F30F2000F092F811
:1015300031498989C91C88B200F092F82E4989780E
:10154000491EC8B200F086F855E02B49488900F0E2
:1015500087F8002000F07EF8002000F07BF8264994
:101560000988491EC1F30F2000F074F82249097858
:10157000491EC8B200F06EF81F49888900F070F863
:10158000002000F067F8002000F064F81A4949884C
:10159000491EC1F30F2000F05DF817498978491EF4
:1015A000C8B200F057F826E0082C1CD2DFE804F09F
:1015B00004070A0D0F12151843F0300313E043F02F
:1015C000100310E043F020030DE000BF0BE043F0F8
:1015D000380308E043F0280305E043F0180302E075
:1015E00043F0080300BF00BF032643F480531946AD
:1015F000304600F045F870BDA004002000B502465A
:101600000B461348808845F2105188421FD110497B
:10161000488900F025F8101200F01CF80C4949899F
:10162000491C88B200F01CF8D0B200F013F8084949
:10163000888900F015F8181200F00CF8044989891F
:10164000491C88B200F00CF8D8B200F003F800BDD5
:10165000A0040020014908807047000000000260DB
:101660000149088070470000FEFF016002480089C0
:101670000249088070470000A0040020FEFF0160BE
:10168000024A1080921C118070470000FEFF01602A
:1016900000BFFEE77047000070B5002100230F2255
:1016A000C47804B3154C246804F4E064C4F5E06421
:1016B000210AC1F10403CA40447804FA03F1847892
:1016C0001440214309010E4C0678A155047804F01A
:1016D0001F050124AC4005786D11AD0005F1E02532
:1016E000C5F8004109E0047804F01F050124AC406E
:1016F000044D0678761145F8264070BD0CED00E0EB
:1017000000E400E080E100E002490143024A116088
:10171000704700000000FA050CED00E029B1064A10
:1017200052690243044B5A6104E0034A52698243FE
:10173000014B5A61704700000010024029B1064A6F
:10174000D2690243044BDA6104E0034AD26982435E
:10175000014BDA61704700000010024029B1064ACF
:1017600092690243044B9A6104E0034A92698243FE
:10177000014B9A61704700000010024030B5002113
:101780000022002400232D4D6D6805F00C0121B1CD
:10179000042905D0082923D105E0294D056022E060
:1017A000274D05601FE0254D6D6805F47012234D2F
:1017B0006D6805F48034022505EB92421CB9214D79
:1017C000554305600BE01D4D6D6805F400351DB1F6
:1017D0001C4D5543056002E0194D5543056002E07C
:1017E000174D056000BF00BF144D6D6805F0F00196
:1017F0000909154D6B5C0568DD4045600F4D6D684E
:1018000005F4E061090A104D6B5C4568DD408560B8
:101810000A4D6D6805F46051C90A0B4D6B5C456853
:10182000DD40C560054D6D6805F44041890B074DED
:101830006B5CC568B5FBF3F5056130BD0010024077
:1018400000127A0000093D005600002066000020CA
:1018500010B500F001F810BD0CB50020019000900B
:101860003348006840F480303149086000BF304898
:10187000006800F4003000900198401C019000982E
:1018800018B90198B0F5A06FF1D12948006800F4AB
:10189000003010B10120009001E00020009000987D
:1018A000012843D12348006840F010002149086016
:1018B0000846006820F0030008600846006840F011
:1018C000020008601A4840681949486008464068A4
:1018D00048600846406840F48060486008464068B8
:1018E00020F47C1048600846406840F4E8104860E6
:1018F0000846006840F08070086000BF0C4800682F
:1019000000F000700028F9D00948406820F003007A
:10191000074948600846406840F00200486000BF40
:101920000348406800F00C000828F9D10CBD000005
:101930000010024000200240042808D14FF0E021AE
:10194000096941F004014FF0E022116107E04FF016
:10195000E021096921F004014FF0E0221161704794
:1019600010B51AF003FB012801D01AF0E5FA10BDFA
:1019700010B51348006840F001001149086008469E
:101980004068104908400E494860084600680E4902
:1019900008400B4908600846006820F48020086071
:1019A0000846406820F4FE0048604FF41F0088603D
:1019B000FFF74EFF4FF000600449086010BD0000C3
:1019C000001002400000FFF8FFFFF6FE08ED00E007
:1019D00000B59FB001210802FFF7A0FE01214FF4DE
:1019E000B470FFF7BBFE4FF40050ADF87800102044
:1019F0008DF87B0003208DF87A001EA9FE48FFF7C2
:101A00003EF94CF20370ADF8780018208DF87B0099
:101A100003208DF87A001EA9F748FFF730F94FF63A
:101A20008070ADF8780018208DF87B0003208DF8C9
:101A30007A001EA9F148FFF722F94FF40B60ADF8C8
:101A4000780018208DF87B0003208DF87A001EA9FD
:101A5000E948FFF714F901200890002009900F20B1
:101A60000A9000200B900C900D900E900190029027
:101A700003200390002004900590069007900F909B
:101A80001090119010201290002013901590149037
:101A9000169017904FF480501890002019904FF432
:101AA00080401A9000201B9008A81C9001A81D904F
:101AB0000FA8FFF771F801210020FFF753F832203B
:101AC00001F068FE0020FFF717FCCD49888008462A
:101AD0008088FF280ADB084680884FF6FF7188421D
:101AE00004D0C7488088B0F5134F7CD1D320FFF7CE
:101AF000B7FDFFF7F7FBC2498880FFF7F3FBC0494A
:101B00008880FFF7EFFBBE498880084680884FF643
:101B1000FF7101EA0020BA498880FFF7E3FBB8496A
:101B200089880843B64988800846808849F241314F
:101B3000884258D0BF20FFF793FDFFF7D3FBB04991
:101B40008880FFF7CFFBAE498880FFF7CBFBAC491D
:101B50008880FFF7C7FBAA498880084680884FF62F
:101B6000FF7101EA0020A6498880FFF7BBFBA4496A
:101B700089880843A24988800846808846F604017F
:101B800088427AD0D420FFF76BFDFFF7ABFB9C496E
:101B90008880FFF7A7FB9A498880FFF7A3FB984945
:101BA0008880084680884FF6FF7101EA002094493A
:101BB0008880FFF797FB924989880843904988807D
:101BC0000846808845F21031884256D04FF45A407A
:101BD000FFF746FDFFF786FB894988804FF45B409D
:101BE000FFF73EFD00E048E0FFF77CFB844988807A
:101BF000084680884FF6FF7101EA002080498880FE
:101C00004FF45C40FFF72CFDFFF76CFB7C498988A3
:101C100008437B49888008468088B0F5004F02D190
:101C200045F2105088807648808845F210518842ED
:101C300023D0A120FFF714FDFFF754FB70498880E3
:101C4000FFF750FB6E498880084680884FF6FF7189
:101C500001EA00206A498880FFF744FB68498988C7
:101C60000843674988800846808845F26171884248
:101C700003D141F66310624988806148818861A080
:101C8000FEF73CFB5E48808845F2105188427DD1CA
:101C900055214FF47040FFF7F3FCAA214FF20100E9
:101CA000FFF7EEFC52214FF20200FFF7E9FC08219A
:101CB0004FF20300FFF7E4FC01214FF20400FFF7AD
:101CC000DFFC0D214FF43040FFF7DAFC0D214BF221
:101CD0000100FFF7D5FC0D214BF20200FFF7D0FC0D
:101CE00034214FF43640FFF7CBFC34214BF2016036
:101CF000FFF7C6FC34214BF20260FFF7C1FC0D2157
:101D00004FF43140FFF7BCFC0D214BF20110FFF7FF
:101D1000B7FC0D214BF20210FFF7B2FC34214FF457
:101D20003740FFF7ADFC34214BF20170FFF7A8FC00
:101D300034214BF20270FFF7A3FC00214FF4324034
:101D4000FFF79EFC00214BF20120FFF799FC0021D8
:101D50004BF20220FFF794FC24214FF43840FFF7A8
:101D60008FFC24214BF60100FFF78AFC24214BF65F
:101D70000200FFF785FC01214FF43F40FFF780FC94
:101D80000F214FF43340FFF77BFC00E0FEE30F210F
:101D90004BF20130FFF774FC0F214BF20230FFF7DA
:101DA0006FFC34214FF43940FFF76AFC34214BF6C5
:101DB0000110FFF765FC34214BF60210FFF760FCC1
:101DC00008214FF43540FFF75BFC08214BF201502E
:101DD000FFF756FC08214BF20250FFF751FC03219C
:101DE0004FF44240FFF74CFC24214FF43A40FFF7F8
:101DF00047FC24210EE000000014014000180140BF
:101E0000A0040020204C43442049443A25780D0A80
:101E1000000000004BF60120FFF732FC24214BF6B6
:101E20000220FFF72DFC00214FF43C40FFF728FC77
:101E300078214BF60140FFF723FC00214BF60240CE
:101E4000FFF71EFC00214FF43D40FFF719FC7821FD
:101E50004BF60150FFF714FC00214BF60250FFF740
:101E60000FFC00214FF43E40FFF70AFC64214BF6C3
:101E70000160FFF705FC00214FF45140FFF700FC23
:101E800033214DF20110FFF7FBFB00214DF2021050
:101E9000FFF7F6FB34214DF20310FFF7F1FB0021B1
:101EA0004DF20410FFF7ECFB3A214DF20510FFF75D
:101EB000E7FB00214DF20610FFF7E2FB4A214DF24D
:101EC0000710FFF7DDFB00214DF20810FFF7D8FBEC
:101ED0005C214DF20910FFF7D3FB00214DF20A10EF
:101EE000FFF7CEFB81214DF20B10FFF7C9FB00215C
:101EF0004DF20C10FFF7C4FBA6214DF20D10FFF7B9
:101F0000BFFB00214DF20E10FFF7BAFBE5214DF2A9
:101F10000F10FFF7B5FB01214DF21010FFF7B0FBDA
:101F200013214DF21110FFF7ABFB01214DF21210FE
:101F3000FFF7A6FB54214DF21310FFF7A1FB01217F
:101F40004DF21410FFF79CFB82214DF21510FFF7A4
:101F500097FB01214DF21610FFF792FBCA214DF2BB
:101F60001710FFF78DFB02214DF21810FFF788FBC9
:101F700000214DF21910FFF783FB02214DF21A10D8
:101F8000FFF77EFB01214DF21B10FFF779FB0221C9
:101F90004DF21C10FFF774FB34214DF21D10FFF7BA
:101FA0006FFB02214DF21E10FFF76AFB67214DF215
:101FB0001F10FFF765FB02214DF22010FFF760FBB9
:101FC00084214DF22110FFF75BFB02214DF222101C
:101FD000FFF756FBA4214DF22310FFF751FB02211E
:101FE0004DF22410FFF74CFBB7214DF22510FFF7FF
:101FF00047FB02214DF22610FFF742FBCF214DF2A5
:102000002710FFF73DFB02214DF22810FFF738FBA8
:10201000DE214DF22910FFF733FB02214DF22A1089
:10202000FFF72EFBF2214DF22B10FFF729FB0221C7
:102030004DF22C10FFF724FBFE214DF22D10FFF77F
:102040001FFB03214DF22E10FFF71AFB10214DF25A
:102050002F10FFF715FB03214DF23010FFF710FB97
:1020600033214DF23110FFF70BFB03214DF23210FB
:10207000FFF706FB6D214DF23310FFF701FB002146
:102080004FF45240FFF7FCFA33214DF20120FFF7E5
:10209000F7FA00214DF20220FFF7F2FA34214DF257
:1020A0000320FFF7EDFA00214DF20420FFF7E8FAD4
:1020B0003A214DF20520FFF7E3FA00214DF2062008
:1020C000FFF7DEFA4A214DF20720FFF7D9FA002187
:1020D0004DF20820FFF7D4FA5C214DF20920FFF7FA
:1020E000CFFA00214DF20A20FFF7CAFA81214DF202
:1020F0000B20FFF7C5FA00214DF20C20FFF7C0FAC4
:10210000A6214DF20D20FFF7BBFA00214DF20E2063
:10211000FFF7B6FAE5214DF20F20FFF7B1FA0121E2
:102120004DF21020FFF7ACFA13214DF21120FFF70A
:10213000A7FA01214DF21220FFF7A2FA54214DF225
:102140001320FFF79DFA01214DF21420FFF798FAB2
:1021500082214DF21520FFF793FA01214DF216204E
:10216000FFF78EFACA214DF21720FFF789FA0221F4
:102170004DF21820FFF784FA00214DF21920FFF7E5
:102180007FFA02214DF21A20FFF77AFA01214DF26F
:102190001B20FFF775FA02214DF21C20FFF770FAA1
:1021A00034214DF21D20FFF76BFA02214DF21E2063
:1021B000FFF766FA67214DF21F20FFF761FA02214F
:1021C0004DF22020FFF75CFA84214DF22120FFF729
:1021D00057FA02214DF22220FFF752FAA4214DF2C4
:1021E0002320FFF74DFA02214DF22420FFF748FA91
:1021F000B7214DF22520FFF743FA02214DF22620A8
:10220000FFF73EFACF214DF22720FFF739FA0221DE
:102210004DF22820FFF734FADE214DF22920FFF796
:102220002FFA02214DF22A20FFF72AFAF2214DF26D
:102230002B20FFF725FA02214DF22C20FFF720FA80
:10224000FE214DF22D20FFF71BFA03214DF22E2027
:10225000FFF716FA10214DF22F20FFF711FA032194
:102260004DF23020FFF70CFA33214DF23120FFF709
:1022700007FA03214DF23220FFF702FA6D214DF2E9
:102280003320FFF7FDF900214FF45340FFF7F8F931
:1022900033214DF20130FFF7F3F900214DF2023006
:1022A000FFF7EEF934214DF20330FFF7E9F9002191
:1022B0004DF20430FFF7E4F93A214DF20530FFF713
:1022C000DFF900214DF20630FFF7DAF94A214DF22D
:1022D0000730FFF7D5F900214DF20830FFF7D0F9AC
:1022E0005C214DF20930FFF7CBF900214DF20A30A5
:1022F000FFF7C6F981214DF20B30FFF7C1F900213C
:102300004DF20C30FFF7BCF9A6214DF20D30FFF76E
:10231000B7F900214DF20E30FFF7B2F9E5214DF289
:102320000F30FFF7ADF901214DF21030FFF7A8F99A
:1023300013214DF21130FFF7A3F901214DF21230B4
:10234000FFF79EF954214DF21330FFF799F901215F
:102350004DF21430FFF794F982214DF21530FFF75A
:102360008FF901214DF21630FFF78AF9CA214DF29B
:102370001730FFF785F902214DF21830FFF780F989
:1023800000214DF21930FFF77BF902214DF21A308E
:10239000FFF776F901214DF21B30FFF771F90221A9
:1023A0004DF21C30FFF76CF934214DF21D30FFF770
:1023B00067F902214DF21E30FFF762F967214DF2F5
:1023C0001F30FFF75DF902214DF22030FFF758F979
:1023D00084214DF22130FFF753F902214DF22230D2
:1023E000FFF74EF9A4214DF22330FFF749F90221FE
:1023F0004DF22430FFF744F9B7214DF22530FFF7B5
:102400003FF902214DF22630FFF73AF9CF214DF284
:102410002730FFF735F902214DF22830FFF730F968
:10242000DE214DF22930FFF72BF902214DF22A303F
:10243000FFF726F9F2214DF22B30FFF721F90221A7
:102440004DF22C30FFF71CF9FE214DF22D30FFF735
:1024500017F903214DF22E30FFF712F910214DF23A
:102460002F30FFF70DF903214DF23030FFF708F957
:1024700033214DF23130FFF703F903214DF23230B1
:10248000FFF7FEF86D214DF23330FFF7F9F8002128
:102490004FF45440FFF7F4F833214DF20140FFF7B9
:1024A000EFF800214DF20240FFF7EAF834214DF237
:1024B0000340FFF7E5F800214DF20440FFF7E0F894
:1024C0003A214DF20540FFF7DBF800214DF20640BE
:1024D000FFF7D6F84A214DF20740FFF7D1F8002167
:1024E0004DF20840FFF7CCF85C214DF20940FFF7B0
:1024F000C7F800214DF20A40FFF7C2F881214DF2E2
:102500000B40FFF7BDF800214DF20C40FFF7B8F883
:10251000A6214DF20D40FFF7B3F800214DF20E4019
:10252000FFF7AEF8E5214DF20F40FFF7A9F80121C2
:102530004DF21040FFF7A4F813214DF21140FFF7C0
:102540009FF801214DF21240FFF79AF854214DF205
:102550001340FFF795F801214DF21440FFF790F872
:1025600082214DF21540FFF78BF801214DF2164004
:10257000FFF786F8CA214DF21740FFF781F80221D4
:102580004DF21840FFF77CF8002100E010E34DF217
:102590001940FFF775F802214DF21A40FFF770F865
:1025A00001214DF21B40FFF76BF802214DF21C4058
:1025B000FFF766F834214DF21D40FFF761F8022164
:1025C0004DF21E40FFF75CF867214DF21F40FFF708
:1025D00057F802214DF22040FFF752F884214DF2C6
:1025E0002140FFF74DF802214DF22240FFF748F855
:1025F000A4214DF22340FFF743F802214DF224407D
:10260000FFF73EF8B7214DF22540FFF739F80221D8
:102610004DF22640FFF734F8CF214DF22740FFF767
:102620002FF802214DF22840FFF72AF8DE214DF263
:102630002940FFF725F802214DF22A40FFF720F844
:10264000F2214DF22B40FFF71BF802214DF22C40F6
:10265000FFF716F8FE214DF22D40FFF711F8032188
:102660004DF22E40FFF70CF810214DF22F40FFF7EE
:1026700007F803214DF23040FFF702F833214DF205
:102680003140FEF7FDFF03214DF23240FEF7F8FF27
:102690006D214DF23340FEF7F3FF00214FF455401A
:1026A000FEF7EEFF33214DF20150FEF7E9FF002166
:1026B0004DF20250FEF7E4FF34214DF20350FEF7D5
:1026C000DFFF00214DF20450FEF7DAFF3A214DF210
:1026D0000550FEF7D5FF00214DF20650FEF7D0FF62
:1026E0004A214DF20750FEF7CBFF00214DF2085072
:1026F000FEF7C6FF5C214DF20950FEF7C1FF002135
:102700004DF20A50FEF7BCFF81214DF20B50FEF74F
:10271000B7FF00214DF20C50FEF7B2FFA6214DF29B
:102720000D50FEF7ADFF00214DF20E50FEF7A8FF51
:10273000E5214DF20F50FEF7A3FF01214DF210509D
:10274000FEF79EFF13214DF21150FEF799FF012174
:102750004DF21250FEF794FF54214DF21350FEF744
:102760008FFF01214DF21450FEF78AFF82214DF2B6
:102770001550FEF785FF01214DF21650FEF780FF40
:10278000CA214DF21750FEF77BFF02214DF218507F
:10279000FEF776FF00214DF21950FEF771FF02217E
:1027A0004DF21A50FEF76CFF01214DF21B50FEF75F
:1027B00067FF02214DF21C50FEF762FF34214DF2FB
:1027C0001D50FEF75DFF02214DF21E50FEF758FF2F
:1027D00067214DF21F50FEF753FF02214DF22050AA
:1027E000FEF74EFF84214DF22150FEF749FF0221F2
:1027F0004DF22250FEF744FFA4214DF22350FEF784
:102800003FFF02214DF22450FEF73AFFB7214DF26F
:102810002550FEF735FF02214DF22650FEF730FF1E
:10282000CF214DF22750FEF72BFF02214DF2285009
:10283000FEF726FFDE214DF22950FEF721FF02218F
:102840004DF22A50FEF71CFFF2214DF22B50FEF7FD
:1028500017FF02214DF22C50FEF712FFFE214DF220
:102860002D50FEF70DFF03214DF22E50FEF708FF0D
:1028700010214DF22F50FEF703FF03214DF230508F
:10288000FEF7FEFE33214DF23150FEF7F9FE032133
:102890004DF23250FEF7F4FE6D214DF23350FEF74B
:1028A000EFFE00214FF45640FEF7EAFE33214DF2D1
:1028B0000160FEF7E5FE00214DF20260FEF7E0FE4A
:1028C00034214DF20360FEF7DBFE00214DF204607F
:1028D000FEF7D6FE3A214DF20560FEF7D1FE00214B
:1028E0004DF20660FEF7CCFE4A214DF20760FEF77E
:1028F000C7FE00214DF20860FEF7C2FE5C214DF2DA
:102900000960FEF7BDFE00214DF20A60FEF7B8FE39
:1029100081214DF20B60FEF7B3FE00214DF20C60F9
:10292000FEF7AEFEA6214DF20D60FEF7A9FE0021D6
:102930004DF20E60FEF7A4FEE5214DF20F60FEF7AA
:102940009FFE01214DF21060FEF79AFE13214DF219
:102950001160FEF795FE01214DF21260FEF790FE28
:1029600054214DF21360FEF78BFE01214DF21460ED
:10297000FEF786FE82214DF21560FEF781FE0121F1
:102980004DF21660FEF77CFECA214DF21760FEF78D
:1029900077FE02214DF21860FEF772FE00214DF223
:1029A0001960FEF76DFE02214DF21A60FEF768FE17
:1029B00001214DF21B60FEF763FE02214DF21C6007
:1029C000FEF75EFE34214DF21D60FEF759FE022136
:1029D0004DF21E60FEF754FE67214DF21F60FEF7B8
:1029E0004FFE02214DF22060FEF74AFE84214DF297
:1029F0002160FEF745FE02214DF22260FEF740FE07
:102A0000A4214DF22360FEF73BFE02214DF224602B
:102A1000FEF736FEB7214DF22560FEF731FE0221AA
:102A20004DF22660FEF72CFECF214DF22760FEF717
:102A300027FE02214DF22860FEF722FEDE214DF234
:102A40002960FEF71DFE02214DF22A60FEF718FEF6
:102A5000F2214DF22B60FEF713FE02214DF22C60A5
:102A6000FEF70EFEFE214DF22D60FEF709FE03215A
:102A70004DF22E60FEF704FE10214DF22F60FEF79E
:102A8000FFFD03214DF23060FEF7FAFD33214DF2D8
:102A90003160FEF7F5FD03214DF23260FEF7F0FDE7
:102AA0006D214DF23360FEF7EBFD55214FF4704080
:102AB000FEF7E6FDAA214FF20100FEF7E1FD5221EB
:102AC0004FF20200FEF7DCFD08214FF20300FEF793
:102AD000D7FD00214FF20400FEF7D2FDCC214FF4C8
:102AE0003140FEF7CDFD00214BF20110FEF7C8FD8D
:102AF00005214FF43640FEF7C3FD70214FF43740F7
:102B0000FEF7BEFD70214BF20170FEF7B9FD012109
:102B10004FF43840FEF7B4FD03214BF60100FEF7F9
:102B2000AFFD03214BF60200FEF7AAFD03214BF691
:102B30000300FEF7A5FD02214FF43C40FEF7A0FD87
:102B400000214BF60140FEF79BFD00214BF60240B1
:102B5000FEF796FDD0214FF44940FEF791FD02218A
:102B60004CF60110FEF78CFD50214CF60210FEF7DA
:102B700087FD50214CF60310FEF782FD50214CF6E4
:102B80000410FEF77DFD00214FF45450FEF778FD50
:102B900055214FF46850FEF773FD4FF48850FEF74F
:102BA0005FFD782000F016FE4FF42450FEF758FD2C
:102BB0000020FEF753FB0120014908601FB000BD53
:102BC000B481224210B50121054800F066F80128C1
:102BD00001D116F075FC0121014800F04FF810BD3D
:102BE000000400407FB505460C4601210220FEF797
:102BF000A5FDADF80850ADF804400020ADF80A007E
:102C0000ADF8060001A90E4800F062F80122114655
:102C10000B4800F053F81D208DF8000004208DF8BB
:102C2000010000208DF8020001208DF803006846A5
:102C3000FEF732FD0121024800F023F87FBD0000BD
:102C40000004004010B50121064800F026F80128D4
:102C500002D105A0FDF752FB0121024800F00EF859
:102C600010BD0000000C004054494D35CAE4B3F6D5
:102C70002E2E2E2E2E2E2E0D0A000000CA4302826A
:102C8000704721B1028842F00102028004E002880C
:102C90004FF6FE731A400280704730B5024600209E
:102CA00000230024158A05EA0103958905EA010439
:102CB00013B10CB1012000E0002030BD1AB18389AE
:102CC0000B43838102E083898B438381704700003B
:102CD000002202881D4B98420ED01D4B98420BD00B
:102CE000B0F1804F08D01B4B984205D01A4B984248
:102CF00002D01A4B984204D14FF68F731A404B887A
:102D00001A43174B984207D0164B984204D04FF6FF
:102D1000FF431A40CB881A4302808B8883850B8837
:102D200003850A4B98420BD0094B984208D00E4BB2
:102D3000984205D00D4B984202D00D4B984201D1DC
:102D40000B7A03860123838270470000002C014028
:102D5000003401400004004000080040000C004026
:102D600000100040001400400040014000440140B9
:102D70000048014008B53E48808845F2105188421D
:102D80001AD1FEF70BF810B93A483B4948603A4867
:102D900090F8300040F08000374981F83000084654
:102DA00090F830003249897901F001010843324935
:102DB00081F83000002008BD01210420FEF7CEFC80
:102DC00001210820FEF7CAFC01211020FEF7C6FCF5
:102DD0002020ADF8000010208DF8030003208DF8AE
:102DE000020069462548FDF74AFF20212348FDF7E8
:102DF000D3FF4020ADF8000048208DF8030069465D
:102E00001E48FDF73CFF40211C48FDF7C5FF802010
:102E1000ADF8000010208DF8030003208DF80200AB
:102E200069461648FDF72BFF80211448FDF7B4FFD3
:102E30001020ADF800008DF8030003208DF802008B
:102E400069460F48FDF71BFF10210D48FDF7A4FF51
:102E50004020ADF8000048208DF80300694609487D
:102E6000FDF70DFF40210748FDF796FF0120A2E77F
:102E7000A0040020410F00081800002000080140B5
:102E800000100140000C014010B540F225511D48D2
:102E900000F04AF810B31B4800F002F9C4B21A4817
:102EA000008800F40040C8B91748008800F480404A
:102EB00060B10A2C03D000201349088020E012489A
:102EC000008840F400401049088019E00D2C06D11C
:102ED0000D48008840F480400B49088010E00A4803
:102EE0000088C0F30D0009490C5407480088401CB5
:102EF0000549088008460088C72801DD00200880B1
:102F000010BD00000038014054000020AE04002035
:102F100021B1828942F40052828104E082894DF617
:102F2000FF731A408281704770B502460024002367
:102F30000025002040F66A16B14200D100BFC1F35F
:102F4000421501F01F03012606FA03F3012D02D1F9
:102F50009689334006E0022D02D1168A334001E003
:102F6000968A33400C12012606FA04F4168834407F
:102F700013B10CB1012000E0002070BDF0B5034694
:102F8000002400260025002040F66A17B94200D12F
:102F900000BF1846C1F3421401F01F06012707FACB
:102FA00006F5012C01D10C3004E0022C01D11030C7
:102FB00000E014301AB107682F43076002E0076889
:102FC000AF430760F0BD00002DE9F04786B005462D
:102FD0000E460024A24600BFA1460027B08900B1DA
:102FE00000BF2F462C8A4CF6FF700440F088044343
:102FF0002C82AC894EF6F3100440B0883189084326
:10300000718908430443AC81AC8A4FF6FF40044009
:10301000B0890443AC8201A8FEF7B0FB1F48874289
:1030200002D1DDF810A001E0DDF80CA0A88900F4C1
:10303000004040B10AEBCA0000EB0A1031684900B9
:10304000B0FBF1F807E00AEBCA0000EB0A103168A8
:103050008900B0FBF1F86420B8FBF0F0040120090E
:10306000642101FB1089A88900F4004040B132209E
:1030700000EBC900B0FBF1F000F00700044308E0EA
:10308000322000EB09106421B0FBF1F000F00F00DA
:1030900004432C8106B0BDE8F087000000380140F1
:1030A00001468888C0F30800704700BFFEE700BFF4
:1030B000704700002DE9F04180460E4600250027AC
:1030C00009E056F827001EA1FDF7F6FA08B1681CC2
:1030D00085B2781C87B256F82700FDF705FA00285C
:1030E000EFD1404610F01CFE0446606820B16068D5
:1030F0000FF044FF00206060A06820B1A0680FF0CE
:103100003DFF0020A060E8000FF012FF60606068E3
:1031100008B900BFFEE768000FF00AFFA060A068D2
:1031200008B900BFFEE7606808B1A06800B90025D3
:103130006900A068FDF776FA2584BDE8F0810000FB
:103140000A00000010B58AB0044694F82000C0F3CD
:10315000400020B994F8200000F0010070B194F80C
:103160002000C0F34000F0B994F8200000F0010006
:10317000C8B194F82000C0F38000A0B124222146F9
:1031800001A8FDF715FA214619480FF0B8FB2046B3
:103190000FF0F4FE012017490870049810B101A83F
:1031A000049988471FE0E08B404200B2608394F8A6
:1031B000200000F00100B0B194F82010C1F38001AC
:1031C00019B9A18B494209B261831034217C890865
:1031D000C943227C61F38202227420686168216005
:1031E0006060103C00BF034800780AB010BD0000CA
:1031F000A40B0020340100202DE9F04107462F48A0
:103200000FF096FA044608E0206A20F008002062D9
:1032100021462A480FF091FA0446002CF4D12848A0
:10322000006816F02FF9064624480FF081FA04468C
:103230003CE000202349087094F82000C0F3C0004F
:1032400038BB206A20F0080008302062608B3044D0
:1032500000B26083B4F91A0000281ADBB4F91A002E
:10326000218B884202DD208B00B260832046A1685A
:1032700088470546606818B129B2D4E90002904732
:10328000B4F91A00218B884202DB2046FFF75AFF6F
:1032900000BF0C48007820B108480FF049FA0446F6
:1032A00004E0214605480FF048FA0446002CC0D13E
:1032B00016F0F6F802490860BDE8F081A40B002082
:1032C000300100203401002030B50346022B04D128
:1032D0000E48405C5043001230BD032B04D10C4813
:1032E000405C50430012F7E7042B04D10948405CCE
:1032F00050430012F0E7C1EBC105581EB5FBF0F0DA
:10330000C4B20548005D5043000AE5E70AC301085E
:103310000CC301080FC3010813C301080146C1F320
:10332000C01070470146C1F3002070470146C1F349
:10333000C00070470146C1F3401070470146C1F319
:10334000001070470146C1F380107047F8B507467A
:103350000E46384610F0E4FC0446E06B20B9B4F8A1
:10336000400008B90120F8BDB4F8400000280CDD89
:10337000384614F0D9FB05460F4909688847B4F868
:103380004010884201D30020EDE7E06B90B10020AF
:10339000009009E06946094AE06B126890470546CB
:1033A000B54201D10120DEE7E06B0099405C0028C6
:1033B000F0D1D8E70120D6E77C0100206C01002085
:1033C0002DE9F0478AB00546002007F00CFB814646
:1033D000A74A0021284612F0B8F9A54A012128463B
:1033E00012F0B3F9284610F0A1FC0646284611F069
:1033F000BCFB0746314610F077FE00BF002128468F
:1034000012F054F99B499C4813F004FC99219A4806
:1034100001720021C1809948006809909648BDF862
:10342000241081860021284605F0D8F894490860C8
:10343000284610F07BFC064600EBD6704710284665
:1034400010F01CFD4000032190FBF1F00FFA80F812
:103450003A4641468A48006810F002FF0F200023D8
:10346000022219460090864800680FF01BFE0221D8
:103470008348006806F0E9F981487F4F06683946BD
:10348000304610F03CFF00BFB2217D48006806F0D6
:10349000C0F97A48001D00680890794808990068CA
:1034A00005F056F88246282251467548006806F015
:1034B0003CF91E2251467248006806F036F92F2268
:1034C00051466F48006806F030F93B2251466C487F
:1034D000006806F02AF93B2251466948006806F068
:1034E00024F91F2251466648006806F01EF937226B
:1034F00051466348006806F018F946225146604874
:10350000006806F012F9522251465D48006806F044
:103510000CF95B2251465A48006806F006F95549F5
:10352000584813F077FB002007905648BDF81C1050
:10353000418052480830006806905248BDF8181083
:10354000818047F61841C1804C480C3000680590D6
:103550004C48BDF81410418199210172002141832A
:1035600081830621C18201834249474813F052FBFF
:1035700042481030006804904348BDF81010818024
:103580003E481430006803903F48BDF80C1041805D
:1035900047F61841C180062141823848183000683A
:1035A00002903948BDF808100182022141838183CD
:1035B000C18201832F49354813F02CFB47F618418F
:1035C0003248C180B22101720021284612F0F6FD76
:1035D00004462C4A0021204613F036F92A4A0121DC
:1035E000204613F031F9294A0221204613F02CF924
:1035F0002348006810F042FC06461422314620465B
:1036000010F02EFE204610F091FB1D490968B1F91B
:103610001610A9EB01010E1A06EBD670401007B286
:1036200000230D2216480097016820460FF03AFD4E
:103630001749204610F056FD26460A274FF47A789F
:1036400042463946304603F081FD00BF4FF42F77E4
:103650004FF0000842463946304603F0C1FD00BF36
:103660000E21204616F0A2FE0AB0BDE8F087000049
:10367000D4080020C4090020088E00208C5F0508B3
:103680008C040020448E0020808E0020BC8E002000
:10369000ADA301082DE9FC4106460D46304610F069
:1036A0003FFB04465820005DC0F30010A84240D004
:1036B0000DB1012000E000205821095D60F30411E4
:1036C00058200155005D00F00F0090B35820005DB8
:1036D00000F0080068BB304610F0DCFA074604F141
:1036E0004E01684603F033F9BDF80000216B098AEA
:1036F000084400B2ADF80000BDF80210206B408A0B
:10370000084400B2ADF80200BDF80400216B098A3C
:10371000084400B2ADF80400BDF80610206B408AE2
:10372000084400B2ADF80600694638460CF0DAFEEF
:1037300000BFBDE8FC81000010B50420FEF7FCF8D6
:10374000104800681049B0FBF1F0104908700D48AE
:1037500000680D49B0FBF1F44FF47A704443012046
:103760000B4908804FF0E020006940F002004FF064
:10377000E021086108464461006940F001000861E9
:1037800010BD00000000002040420F004C0000204F
:103790004E00002070B5044618F0E8FB012810D058
:1037A0000B480088844206D309480088B4FBF0F532
:1037B000284618F04FFA06480088B4FBF0F100FBE9
:1037C00011444FF47A7104FB01F000F003F870BD6E
:1037D0004E00002070B5034600224FF0E0267569C8
:1037E0000D4E367803FB06F44FF0E026B16910E089
:1037F0004FF0E026B06988420BD0884202D20E1A00
:10380000324402E02E1A0E4432440146A24200D352
:1038100000E0EDE700BF70BD4C0000202DE9F0474F
:103820000446201D0EF084FF0646204610F07BFA69
:103830008046B8F1000F02D020460BF0DBFB08E019
:103840003146201D0EF079FF07463046FFF7E6FFB0
:103850003E46002EF4D10022132120460BF0CAF977
:1038600020460BF0B7F90021204602F0E3FF0020CC
:103870000CF0E8FC05461BE0686BA04202D0A86B88
:10388000A04202D128460CF0D3FDE86BA04201D142
:103890000021E963686D404506D10CF0E1FCA042CF
:1038A00002D128460CF0C4FD28460CF0CBFC05469E
:1038B000002DE1D1204610F06AFA8146214609F137
:1038C00004000FF01CF8002211462046E3699847D7
:1038D000606A10B1606A0FF051FB20460FF04EFB9A
:1038E000BDE8F0872DE9FF5F002007F041F80446AE
:1038F000002007F078F80746002007F069F88346B3
:1039000000210BF06FFD06464E4930460CF03EFBA1
:10391000A00001B2304610F0FDFC0421304610F04A
:1039200097FC4949494813F075F9494806F01BF8D6
:1039300000904648BDF800104180454806F013F855
:1039400000904248BDF8001081800021C1820183AF
:103950004049414813F05EF900213F4801728181DE
:103960003E493F4813F056F900213D48C1807F2170
:1039700001723C48006803903948BDF80C10418042
:103980003848001D006802903548BDF80810818055
:103990000021818133480830006801903048BDF82B
:1039A00004100184002007F013F88346002114F06E
:1039B00059FF05463A462146284610F051FC686AF0
:1039C0008168304610F0BFFB6FF0040200213046E2
:1039D00010F0EDFB24A1284614F0FAFD804624A146
:1039E000284614F0F5FD814623A1284614F0F0FD89
:1039F0008246164A0221284615F028F9124A01216A
:103A0000284615F023F9144A0321284615F01EF91B
:103A1000134A0421284615F019F90F4A05212846B2
:103A200015F014F90E4A0621284615F00FF9404604
:103A300018F0A6F9484602F083FD5046FFF7C0FC97
:103A4000BDE8FF9F800400204C090020A08C0020CE
:103A5000B77F48003C0A0020DC8C0020780A002058
:103A6000188D0020685F05085772697465000000B2
:103A70004C697374000000004368617274000000B8
:103A8000F8B506460C4615460095E788BBB2A788F0
:103A9000BAB26788B9B22788B8B2FDF7AFFB304633
:103AA00006F048FFF8BD704770B505460C4628463D
:103AB00010F036F906463484284610F00FFA70BD2F
:103AC00070B50546286810F02BF904462820005DE3
:103AD00020F0020128200155005D20F0040128207B
:103AE0000155005D20F0100128200155005D20F0F7
:103AF000080128200155286810F0F0F970BD70B554
:103B000004460D460026207800F0010068B92068C0
:103B1000B5EB500F09D82946204600F021F820685F
:103B200020F00100401C2060261D304670BD0000C2
:103B300010B50146002011B9084A10680CE00A1DB2
:103B40000B6802EB5300031D044C246804F5804409
:103B5000A34200D3002000BF10BD0000440100209C
:103B600030B501F0030212B121F00301091D0A1D55
:103B70000368B2EB530F01D1026851080268B1EB40
:103B8000520F0ED0031D5A18146824F0010414605B
:103B90000468C1EB5404241F156864F35F051560C5
:103BA00000BF026861F35F02026030BD2DE9F84F8B
:103BB00004468846914694F8580000F0010008B188
:103BC000BDE8F88FE56800264FF0010A4FF0010BC1
:103BD00000BF8DB994F85800C0F3001000B956B971
:103BE000BBF1000F00D1EBE72046C04705464FF080
:103BF000000AD34600E0E3E716B92E4606B9DFE730
:103C0000BAF1000F06D029462046C8470546B542FE
:103C100000D1D5E74FF0010A05B9DAE7286810F0BE
:103C20009CF800B900E0D4E700BFE068A84200D1EA
:103C3000C6E7E068A8B1E168086800221021C369FE
:103C40009847E168002208680D210AF0D3FF009030
:103C50000098012800D0B3E7E168086810F03EF949
:103C600000BFE560E168086800220F21C36998473A
:103C7000E168002208680C210AF0BCFF0746012F0A
:103C800000D09DE7E168086816F075F8E1680868FB
:103C900010F024F9A06910B12046A169884700BF3F
:103CA0008EE7000000BF054A128802F04002002A99
:103CB000F9D0C2B2014B1B1D1A8070470038014079
:103CC0002DE9FF4106460F46304610F029F805461B
:103CD00002A930460FF0D1FF00242DE0686800EB08
:103CE000C401684602F01FFEBDF80000BDF80810D0
:103CF000084400B2ADF80000BDF80200BDF80A109B
:103D0000084400B2ADF80200BDF80400BDF8081088
:103D1000084400B2ADF80400BDF80600BDF80A1072
:103D2000084400B2ADF806003946684602F010FFBC
:103D300000B104E0601C84B2288CA042CEDC00BF3D
:103D4000288CA04201D14FF6FF74204604B0BDE894
:103D5000F081014601F007020AB1104670470120C8
:103D6000FCE7F8B506460C4630460FF0D9FF05468D
:103D7000286B10F01FF80746686C20B12046696C6C
:103D800012F048FF24E03946204612F043FF206A33
:103D9000009060882084BDF800006080A01CBDF801
:103DA0000010A180BDF800106181FF21E1730121A5
:103DB000A18100216182E180FF21217200216183C4
:103DC000A183E18221830121E186FF21217200BFCD
:103DD000F8BD00002DE9FC4780460E4616B90020CC
:103DE000BDE8FC87D8F80C406069B04201D1A069F9
:103DF000F6E70025AEE005EB8501A06850F821004C
:103E0000301A019005EB8501A06800EB81008088E5
:103E10000199884200D29BE0002705EB8501A0684C
:103E200000EB8100807C00F0030040B905EB8501C8
:103E3000A06800EB8100C0880199471884E005EB79
:103E40008501A06800EB8100807C00F00300012860
:103E50000FD105EB8502A16801EB8201C86805EB73
:103E60008502A16801EB8201C988019A825C8F18E2
:103E70006AE005EB8501A06800EB8100807C00F022
:103E80000300022827D13948009005EB8503A0687C
:103E900000EB8300028A05EB8503A06800EB83003A
:103EA0000223816801A815F067FE8146B9F1000F71
:103EB00010D005EB8502A16801EB82018968A9EBAE
:103EC0000100400805EB8502A16801EB8201C98869
:103ED0000F1800BF38E005EB8501A06800EB8100FA
:103EE000807C00F0030003282ED12048009005EBD1
:103EF0008503A06800EB8300028A05EB8503A068B8
:103F000000EB83000223816801A815F035FE81468D
:103F1000B9F1000F17D005EB8503A26802EB83020D
:103F20009268A9EB0200400805EB8503A26802EB4A
:103F30008302D16805EB8503A26802EB8302D28875
:103F40000B5CD71800BF00BF6661A761384647E722
:103F5000681C85B2608AC0F30900A8423FF74BAFE6
:103F600066610020A06100BF3AE700000DBA0108B9
:103F70002DE9FC5F80460D461646D8F80C704FF0D0
:103F8000000A788AC0F34030002841D1FC68A0685C
:103F9000C0F30160D8B9D4F8009005EB062080B2D8
:103FA000019027480090A06820F07F4202234946F4
:103FB00001A815F0E1FD8346BBF1000F06D0ABEB85
:103FC00009004008616811F900A000BF1FE0A06867
:103FD000C0F3016001281AD1D4F8009005EB062047
:103FE000019018480090A06820F07F4204234946C1
:103FF00001A815F0C1FD8346BBF1000F06D0ABEB65
:1040000009000009616811F900A000BF00BF13E0BA
:10401000F8684368595D43689A5D00290BDD002A02
:1040200009DD531E4C1E90F80DC004FB0C330468D0
:10403000E35C4FFA83FA00BF5046BDE8FC9F0000E6
:1040400019530008F952000801460020302905DB09
:10405000392903DCA1F13002D0B21CE0612902DB76
:10406000A1F12002D1B2A1F14102062A10D2DFE86B
:1040700002F0030507090B0D0A200BE00B2009E0F5
:104080000C2007E00D2005E00E2003E00F2001E0EA
:10409000002000BF00BF704770B504460D46A06DFC
:1040A000A96830F821102184A06DA96800EB810077
:1040B00041886184B4F92410B4F9200081420DD103
:1040C000B4F92610B4F92200814207D1A87B012857
:1040D00004D104F11C0000F059FD03E004F11C00C0
:1040E00000F012FF218CA184618CE18470BD00007E
:1040F0002DE9F04F87B00446A569002703E0284664
:104100000FF045FE054628460FF0FEFD08B1002DD4
:10411000F5D115B907B0BDE8F08F28460FF0E8FDDE
:1041200000B9F7E728460FF0E9FD0646218AA08985
:10413000084401B22182618AE089084401B26182A7
:1041400094F8240000F0010058BB06F0010070B1A3
:10415000B4F91000002802DDB4F9100002E0B4F94F
:104160001000404267490968097D884211DA06F06B
:104170000200B0B1B4F91200002802DDB4F9120057
:1041800002E0B4F9120040425E490968097D8842A4
:1041900007DB94F8240020F00100401C84F8240080
:1041A000012794F8240000F0010000287ED0A089A7
:1041B00010B9E0890028F9D052490968C86806F0AA
:1041C000EBFB8246B5F910B0B5F91200069028460F
:1041D0000FF0DDFD03900FF051FE059028460FF023
:1041E000D6FD03900FF0A2FD049028460FF05EFE6E
:1041F000804628460FF066FE8146032E12D13FB15D
:10420000208A40440FFA80F8608A48440FFA80F907
:10421000E089484402B2A089404401B228460FF028
:10422000C6FF1CE006F0010058B11FB1208A4044CF
:104230000FFA80F8A089404401B2284610F077F8C0
:104240000DE006F0020050B11FB1608A48440FFA39
:1042500080F9E089484401B2284610F075F8B5F9B4
:10426000100058452DD1B5F912100698814228D179
:1042700028460FF08CFD01900FF000FE03902846B9
:104280000FF085FD01900FF051FD02900599039804
:10429000884215D104990298884211D119490968B8
:1042A000C86806F079FB0190019A00E027E0A2EBD4
:1042B0000A0291B2134A1268D06806F0C7FB00BF29
:1042C0001CE094F8240020F00200801C84F82400F4
:1042D000A7B10C48EB690D21026828469847204693
:1042E00000F072FF00B115E70022082128460AF00D
:1042F00081FC204600F068FF00B10BE700BF00BF63
:1043000008E70000B40000202DE9FF41044694F8BE
:104310002400C0F3400008B9BDE8FF81E56903E06F
:1043200028460FF034FD054628460FF0EDFC08B195
:10433000002DF5D105B9EFE728460FF0EBFCD8B911
:1043400094F8240020F0020184F824105948EB6905
:104350000E210268284698470022092128460AF0C3
:1043600049FC204600F030FF00B1D5E700220921CA
:1043700028460AF03FFCCFE728460FF0BFFC064670
:10438000B4F914004B490968497DC1F164014843FF
:10439000642190FBF1F001B2A182B4F91600454905
:1043A0000968497DC1F164014843642190FBF1F043
:1043B00001B2E182A08A10B9E08A00285DD002A98A
:1043C00028460FF05AFC28460FF070FDA18A0844D9
:1043D0000FFA80F828460FF075FD0146E08A084480
:1043E00007B2032E05D13A46414628460FF0DFFEBC
:1043F0000EE006F0010020B1414628460FF097FF7D
:1044000006E006F0020018B1394628460FF09CFF7E
:10441000694628460FF031FCBDF90800BDF90010CF
:10442000884201D0A08A38BBBDF90A00BDF902104C
:10443000884201D0E08AF8B994F8240020F0020103
:1044400084F824100021A181E181A182E182194830
:10445000EB690E21026828469847204600F0B4FE1A
:1044600000B159E70022092128460AF0C3FB204683
:1044700000F0AAFE00B14FE71AE094F8240020F003
:10448000020184F824100B48EB690E2102682846CB
:104490009847204600F098FE00B13DE70022092130
:1044A00028460AF0A7FB204600F08EFE00B133E755
:1044B00000BF31E7B40000202DE9F84304460D4663
:1044C000A87B012806D194F84C00C0F3C00008B1C5
:1044D000BDE8F88394F84C00C0F3C00080B194F8B4
:1044E0004C0020F0080184F84C100021616494F81D
:1044F0004C0020F0010184F84C10002120200155CF
:1045000094F82080A97B2020015569686162676D5D
:1045100007B9DDE738460AF017FDC54908600846C7
:10452000006800B9D4E7A87B002843D138460AF0D8
:1045300002FD00B3B5F90C0000280CDA002604E0F7
:10454000142138460AF09AFD761CB5F90C00404259
:10455000B042F5DC0EE0B5F90C0000280ADD0026BB
:1045600004E0132138460AF089FD761CB5F90C00E9
:10457000B042F6DC1EE0B5F90C0000280BDA00268C
:1045800003E038460AF0C2FC761CB5F90C00404244
:10459000B042F6DC0DE0B5F90C00002809DD00267C
:1045A00003E038460AF048FC761CB5F90C00B0422E
:1045B000F7DC00BF38460AF0C7FC9D490860084692
:1045C000006800B984E7A87B012831D1B8F1000F59
:1045D0002ED100200090964800686A461221C369D7
:1045E00093480068984714F05BFF606438460AF00F
:1045F000A2FC10B99DF80000C8B98D4800680022DF
:104600000721C3698A480068984704F11C0000F03C
:10461000DBFD00B15CE700221146854800680AF026
:10462000E9FA04F11C0000F0CFFD00B150E7F9E019
:10463000A87B01284BD1B8F1010F48D194F84C0068
:1046400000F001000028F2D1606C14F01BFFE18A39
:104650008842ECD900200090754800686A46122113
:10466000C3697348006898479DF8000068B13846F0
:104670000EF004F918BB38460AF05DFC80F0010624
:10468000314638460AF019FD19E0694800680022F1
:104690000B21C36966480068984704F11C0000F0CC
:1046A00093FD00B114E700220421614800680AF07C
:1046B000A1FA04F11C0000F087FD00B108E794F8AE
:1046C0004C0020F00100401C84F84C00AAE0A87BBC
:1046D0000028ACD1B8F1010FA9D10090544800686E
:1046E0006A461221C3695248006898479DF8000045
:1046F000B0BB4F48006800220A21C3694C480068DB
:10470000984704F11C0000F05FFD00B1E0E694F86A
:104710004C0000F0010028B9002203214448006841
:104720000AF068FA04F11C0000F04EFD00B1CFE67B
:10473000002206213E4800680AF05CFA04F11C00E1
:1047400000F042FD00B1C3E60022072138480068AE
:104750000AF050FA04F11C0000F036FDA8B3B7E6E9
:10476000FFE797F85800C0F3400078B394F84C0086
:1047700000F0010018B138460EF080F828B32C483C
:10478000006800220A21C36929480068984704F19B
:104790001C0000F019FD00B19AE600220321244814
:1047A00000680AF027FA04F11C0000F00DFD00B1CA
:1047B0008EE6002206211E4800680AF01BFA04F16A
:1047C0001C0000F001FD10B182E622E010E00022A2
:1047D0000721174800680AF00DFA04F11C0000F0E8
:1047E000F3FC00B174E60A2138460AF047FC10E0F9
:1047F0009DF8000068B197F85800C0F3400040B938
:1048000094F84C0000F0010018B9012138460AF074
:1048100054FC0021616494F84C0020F0010184F8FC
:104820004C1000BF00200249086000BF50E60000A5
:10483000B80000202DE9F04104460D46A87B012870
:1048400006D194F84C00C0F3C00008B1BDE8F08177
:1048500094F84C00C0F3C00080B194F84C0020F0F4
:10486000080184F84C100021616494F84C0020F099
:10487000010184F84C10002120200155676D07B913
:10488000E4E738460AF060FBA8490860084600687B
:1048900000B9DBE7D4F82480696861622020065DF6
:1048A000A97B0155A87B012861D1002E5FD114F0AE
:1048B000F7FD606468680A281ED10A2138460AF0AC
:1048C000DDFB9A48006800220721C3699748006809
:1048D000984704F11C0000F077FC00B1B6E7002215
:1048E0001146924800680AF085F904F11C0000F0B6
:1048F0006BFC00283AD0A9E768681B2810D11B215F
:1049000038460AF0BBFB00221221884800680AF0F2
:1049100071F904F11C0000F057FC0028EAD095E77B
:10492000686809280DD1002138460AF0C6FB3846D0
:104930000AF082FA04F11C0000F046FC0028D9D0ED
:1049400084E768680B280DD1002138460AF0B5FBD2
:1049500038460AF0DBFA04F11C0000F035FC0028B0
:10496000C8D073E7384669680AF088FBD9E0A87BAD
:10497000012872D1012EFCD194F84C0000F0010006
:1049800068BB606C14F07EFDE18A884227D994F8F8
:104990004C0020F00100401C84F84C0068680A2894
:1049A000E4D114F07DFDA0646048006800220B2172
:1049B000C3695E480068984704F11C0000F004FCDD
:1049C00000B143E700220421584800680AF012F9B8
:1049D00004F11C0000F0F8FB0028C7D036E794F87B
:1049E0004C0000F001000028C0D0A06C14F04AFD7B
:1049F000218B8842BAD914F053FDA06468680A2854
:104A00001AD14A48006800220C21C369474800684F
:104A1000984704F11C0000F0D7FB00B116E7002214
:104A20000521424800680AF0E5F804F11C0000F096
:104A3000CBFB002875D009E7686809280ED1002152
:104A400038460AF03AFB38460AF0F6F904F11C0041
:104A500000F0BAFB002864D0F8E619E068680B287B
:104A60000CD1002138460AF028FB38460AF04EFAED
:104A700004F11C0000F0A8FB90B3E7E63846696833
:104A80000AF0FCFA04F11C0000F09EFB40B3DDE6E6
:104A9000A87B28BB012E44D1C5F8048068680A2889
:104AA00037D12248006800220A21C3691F480068E4
:104AB000984704F11C0000F087FB00B1C6E694F8AB
:104AC0004C0000F0010060B9002203211748006883
:104AD0000AF090F804F11C0000F076FB08B1B5E68E
:104AE0001FE000220621114800680AF083F804F153
:104AF0001C0000F069FB00B1A8E6002207210B486A
:104B000000680AF077F804F11C0000F05DFB00B1CA
:104B10009CE60021616494F84C0020F0010184F8C7
:104B20004C1000200149086000BF8FE6B80000204B
:104B300070B504460D46206D90B1B4F92400B5F966
:104B40000010884205D1B4F92600B5F90210884258
:104B500006D0B5F90220B5F90010206D0FF027FB43
:104B60002988218469886184207F012804D104F187
:104B70001C0000F00BF803E004F11C0000F0C4F985
:104B8000218CA184618CE18470BD00002DE9F0418D
:104B90000446DB49A069086094F83000C0F3C00007
:104BA00008B1BDE8F081D7480068C6680027D4483E
:104BB000006828BB304605F0F5FE0546294620462C
:104BC00000F012FBCE4908600846006848B930463C
:104BD00005F0F3FE05462946204600F005FBC849CE
:104BE0000860C748006848B9304605F0F1FE054640
:104BF0002946204600F0F8FAC149086001272FE055
:104C000094F82400C0F3400050BB1021BC48006859
:104C10000FF0D8F920BB304605F0C4FE0546294602
:104C2000204600F0E1FAB64908600846006848B935
:104C3000304605F0C2FE05462946204600F0D4FA6B
:104C4000AF490860AE48006848B9304605F0C0FE7C
:104C500005462946204600F0C7FAA9490860012701
:104C60003FB1E06928B10021A182E1822046FFF72F
:104C70004BFBA349A069096888426ED0A1882181B5
:104C8000E1886181A069B0B1A5699E48EB690921FD
:104C9000026828469847204600F096FA00B180E75F
:104CA00000220221284609F0A5FF204600F08CFAD8
:104CB00000B176E700BF92480168A1610168E16137
:104CC0000068002849D014F0EBFBA06294F8300093
:104CD00020F0010084F8300094F8240020F0010155
:104CE00084F8241094F8240020F0020184F82410A1
:104CF000002121826182A181E18181480568884685
:104D000009E095F83000C0F3401000B1A8462846ED
:104D10000FF03DF80546002DF3D1B8F1000F02D099
:104D200040460FF058F976480068C3697548072176
:104D30000268734800689847204600F045FA00B1C1
:104D40002FE7002211466E48006809F053FF204605
:104D500000F03AFA00B124E700BFA1882089081AC0
:104D600001B2A181E1886089081A01B2E181B4F938
:104D7000140000EB8000C010A082B4F9160000EB14
:104D80008000C110E182B4F91400002804DAA08A7E
:104D9000401C01B2A18207E0B4F91400002803DD31
:104DA000A08A401E01B2A182B4F91600002804DADC
:104DB000E08A401C01B2E18207E0B4F91600002845
:104DC00003DDE08A401E01B2E182A18AB4F90C0041
:104DD000800001EBE00001B2A182E18AB4F90E008B
:104DE000800001EBE00001B2E18245480068002844
:104DF00075D043480068C3694248082102684048AA
:104E000000689847204600F0DFF900B1C9E60022AB
:104E100001213B48006809F0EDFE204600F0D4F97E
:104E200000B1BEE62046FFF763F9204600F0CCF95A
:104E300000B1B6E694F82400C0F3400078BB94F8C3
:104E4000300000F0010050BBA06A14F01BFB2D499C
:104E50000968C98A884222D929480068C369294853
:104E60000B210268264800689847204600F0ACF9FC
:104E700000B196E6002204212148006809F0BAFE3C
:104E8000204600F0A1F900B18BE694F8300020F044
:104E90000100401C84F8300014F002FBE06294F83A
:104EA0002400C0F34000D0B994F8300000F00100B5
:104EB000A8B1E06A14F0E6FA12490968098B884241
:104EC0001CD90F480068C3690E480C2102680C48C1
:104ED00000689847204600F077F908B161E60DE0D8
:104EE000002205210648006809F084FE204600F0F3
:104EF0006BF900B155E614F0D3FAE06200BF50E65A
:104F0000B8000020B40000202DE9F041044694F8D8
:104F10003000C0F3C00058B10021A161E161002060
:104F2000A062E06294F8300020F0080084F83000BD
:104F30008C49A069086008460068002874D01021D8
:104F4000884800680FF03EF800283AD0854800688D
:104F5000C36985480A21026882480068984720464C
:104F600000F032F908B1BDE8F08194F82400C0F3F4
:104F70004000D0B994F8300000F0010050B9002290
:104F800003217848006809F035FE204600F01CF93E
:104F900000B1E8E7002206217248006809F02AFE05
:104FA000204600F011F900B1DDE7002207216D482D
:104FB000006809F01FFE204600F006F900283FD0E7
:104FC000D1E768480068C36967480A2102686548F4
:104FD00000689847204600F0F7F800B1C3E794F85E
:104FE000300000F0010078B994F82400C0F34000CC
:104FF00050B9002203215B48006809F0FBFD204600
:1050000000F0E2F800B1AEE794F82400C0F34000ED
:1050100058B9002206215348006809F0EBFD2046EC
:1050200000F0D2F808B19EE78AE0002207214D483F
:10503000006809F0DFFD204600F0C6F800B192E7F5
:10504000204600F0C1F800B18DE74FF00008454858
:1050500000680EF068FE05462021424800680EF008
:10506000B1FF10BB3F48076810E038460EF08FFED6
:10507000074607B90CE0202138460EF0A3FF08B11F
:10508000002705E038460EF04EFE0546002DECD018
:1050900000BF4DB147B1284609F044FF20B14FF0A1
:1050A0000108384609F0D4FE00BF2E49206A09687D
:1050B000884219D0B8F1000F16D100220D21206AC4
:1050C00009F098FD204600F07FF800B14BE7002280
:1050D0000C21A06909F08EFD204600F075F800B1A2
:1050E00041E7204801682162204600F06DF800B1D8
:1050F00039E71C48066803E030460EF048FE0646D5
:1051000030460EF001FE08B1002EF5D196B13046C2
:105110000EF000FE70B194F82400C0F3400048B1D6
:1051200000220A21304609F065FD204600F04CF8C7
:1051300000B118E70021A1610020A062E06200BF79
:10514000E06960B194F83000C0F3400038B92046FF
:10515000FFF7DAF8204600F037F800B103E700BFA8
:1051600001E70000B8000020B400002090F84C10C7
:10517000C1F3400129B3002242638263C26390F805
:10518000401021F0010280F8402090F8401021F0FA
:10519000020280F8402090F84C1021F0010280F8C3
:1051A0004C200022426482648285C2850286428647
:1051B00090F84C1021F0020280F84C200021014AA6
:1051C00011607047B8000020014691F83000C0F32C
:1051D000400010B10020034A106091F83000C0F385
:1051E00040007047B80000202DE9F04107460C460A
:1051F0000025391D04F1100001F0AAFC00282BD075
:10520000201D0DF095FA80460BE041463846FFF729
:10521000EBFF054605B107E04146201D0DF08DFA74
:105220008046B8F1000FF0D100BFA5B920460EF0BE
:105230001EFD80B1264608E030460EF08EFD00B11E
:1052400005E030460EF0A3FD0646002EF4D100BF67
:1052500006B9254600BF00BF2846BDE8F0812DE90C
:10526000FF4106460C464FF6FF70844201D1BDE86F
:10527000FF8130460EF054FD0546686800EBC4011E
:1052800002A801F050FB694630460EF0F6FCBDF86E
:105290000800BDF80010084400B2ADF80800BDF8E1
:1052A0000A00BDF80210084400B2ADF80A00BDF8CB
:1052B0000C00BDF80010084400B2ADF80C00BDF8B9
:1052C0000E00BDF80210084400B2ADF80E003046E2
:1052D0000EF0E0FC074602A90BF004F900BFC6E798
:1052E00010B5044620680EF0BFFB0020014908609D
:1052F00010BD00009404002030B5024614460B4651
:1053000020881D88A84203D020881D88401B30BDFE
:1053100060885D88401BFAE730B5024614460B46AC
:1053200020781D78A84203D020781D78401B30BD1E
:1053300060785D78401BFAE770B58AB006460C4687
:1053400021461D4800680BF0E3F9112C01D0122C06
:1053500030D1194800680190174800680EF0B2FD7E
:10536000059005F0FFFA054605F03DFB0690134851
:10537000029013480390134804900020ADF81E00DB
:105380004FF49670ADF81C009DF8240020F0010049
:105390008DF824000020ADF820009DF8240020F0B6
:1053A00002008DF824000020ADF8220001A801F0D1
:1053B00015FA00BF0AB070BD9404002049430108EB
:1053C0008D680008E15200082DE9F04F85B00446D1
:1053D000894615461E46E88E401E07B24FEA67080A
:1053E00007F0010AFF2E02D13820405D03E038208B
:1053F000405D7043001283462088ADF80C00A08801
:10540000ADF810006088A0EB0800A0EB0A0000B225
:10541000ADF80E00E088404400B2ADF81200BDF9CE
:105420000C00BDF91010884202DABDF90C0001E051
:10543000BDF91000ADF80400BDF90C00BDF9101065
:10544000884202DDBDF90C0001E0BDF91000ADF8A5
:105450000800BDF90E00BDF91210884202DABDF94C
:105460000E0001E0BDF91200ADF80600BDF90E0016
:10547000BDF91210884202DDBDF90E0001E0BDF950
:105480001200ADF80A00A88E5B460246494600901D
:1054900001A805F035FC05B0BDE8F08F0FB59DB053
:1054A0002298FF2803D1209890F8380005E0209832
:1054B00090F838002299484300121C9010F08EFC9E
:1054C0000A9005F03EFA1B901D9881880088081A02
:1054D00000B2ADF868001D98C1884088081A00B273
:1054E000ADF86A001D98007EF0B11D98B0F9021069
:1054F000B0F906201E98104481420ADABDF86A000D
:10550000404200B2ADF86400BDF86800ADF8660036
:1055100028E0BDF86A00ADF86400BDF868004042BC
:1055200000B2ADF866001DE01D98B0F90010B0F9AA
:1055300004201E98104481420ADABDF86A00ADF8D2
:105540006400BDF86800404200B2ADF8660009E0B2
:10555000BDF86A00404200B2ADF86400BDF86800D2
:10556000ADF86600BDF86400000100B2ADF864005B
:10557000BDF86600000100B2ADF866002098B0F9F1
:10558000360018901898400000B2179017988000C5
:105590000A9005F015FC1690002015901898002828
:1055A0003CD00020039019AA03A904A800F0F1FE42
:1055B0001898404302900020159028E0BDF818206C
:1055C000DDE9151020F82120BDF81A20DDE91510BD
:1055D00000EB81004280BDF918004043BDF91A205C
:1055E00002FB02000190DDE90101884208D3159811
:1055F00018901B9818B11898401E00B218900BE034
:1056000004A800F030FF1598401C00B215901798C0
:10561000401E15998842D1DC00BF00BF1898139036
:105620001B9828B1189808B90120139000201490F5
:105630000020129011901898B0B11898401E169939
:1056400031F920000A9000EBD070401012901898A9
:10565000401E169901EB8000B0F902000A9000EBA1
:10566000D0704010119023E01D98007E70B11D98FD
:10567000B0F90210B0F906201E981044814205DBF3
:1056800016984088401E01B2169841801D98007EF1
:1056900070B91D98B0F90010B0F904201E9810449C
:1056A000814205DB16980088401E01B216980180E1
:1056B0000020159077E1DDE9151030F821101298DF
:1056C000081A02B2DDE9151020F82120DDE91510D5
:1056D00000EB810041881198081A02B2DDE915102B
:1056E00000EB810042801B9800287DD0159800288F
:1056F000FBD01D98007E002877D01598401E169983
:1057000031F920200846159930F921008242ECD069
:10571000DDE9151000EB810042881499169800EB22
:1057200081004088101A00B20A901D98B0F912004A
:10573000002847DA1C9801902098808EADF8000070
:105740001D9842881499169800EB81004088111822
:105750000A980844401C00B209901D9802881499C8
:10576000169830F821001044401E00B208901F9B8C
:10577000DDE9091205F074FA1C9801902098808EDA
:10578000ADF800001D98C2881499169800EB8100AE
:10579000408811180A980844401C00B209901D98CE
:1057A00082881499169830F821001044401C00B2E9
:1057B00008900A98404202B21F9BDDE9080105F0FB
:1057C0004FFA41E01C9801902098808EADF80000BF
:1057D0001D9842881499169800EB81004088104467
:1057E00000B209901D9801E0BEE030E002881698F2
:1057F00030F821001044401E00B208901F9BDDE9E4
:10580000091205F02DFA1C9801902098808EADF8B1
:1058100000001D98C2881499169800EB81004088FA
:10582000104400B209901D988288169830F8210023
:105830001044401C00B208900A98404202B21F9BDC
:10584000DDE9080105F00CFA15981490A7E0159809
:10585000401E169901EB8000B0F902200846159908
:1058600000EB8100B0F9020082427DD0DDE9151025
:1058700030F82120149930F82100101A00B20A9053
:105880001D98B0F90E00002845DA1C980190209868
:10589000808EADF800001D9842881499169800EB90
:1058A000810040881044401E00B209901D98028873
:1058B000169830F8210011180A980844401C00B2CC
:1058C00008901F9BDDE9091205F09CF91C980190D6
:1058D0002098808EADF800001D98C2881499169803
:1058E00000EB810040881044401C00B209901D98D4
:1058F0008288169830F8210011180A980844401C34
:1059000000B208900A98404202B21F9BDDE90801EC
:1059100005F078F940E01C9801902098808EADF851
:1059200000001D9842881499169800EB8100408869
:105930001044401E00B209901D980288169830F855
:105940002100104400B208901F9BDDE9091205F008
:1059500059F91C9801902098808EADF800001D9890
:10596000C2881499169800E019E000EB8100408885
:105970001044401C00B209901D988288169830F897
:105980002100104400B208900A98404202B21F9BC6
:10599000DDE9080105F036F91598149000BF159857
:1059A000401C00B21590189915988842FFF683AEF6
:1059B000189800287ED01B980028FBD01D98007EE8
:1059C000002878D01398401E169901EB8000428879
:1059D0000846149900EB81004088101A00B20A9022
:1059E0001D98B0F91200002851DA1C9801902098F7
:1059F000808EADF800001D9842881499169800EB2F
:105A00008100408811180A98084400B208901D9837
:105A100002881499169830F821001044401E00B2F4
:105A200007901D98418A0A98084400B209900246DE
:105A30001F9BDDE9070105F013F91C9801902098E0
:105A4000808EADF800001D98C2881499169800EB5E
:105A50008100408811180A98084400B208901D98E7
:105A600082881499169830F821001044401C00B226
:105A700007901D98418A0A980844404200B2099054
:105A800002461F9BDDE9070105F0EAF84DE01C988E
:105A900001902098808EADF800001D9842881499DE
:105AA000169800EB81004088104400B208901D98C1
:105AB000028801E0E7E039E0169830F82100104450
:105AC000401E00B207901D98418A0A98084400B20F
:105AD000099002461F9BDDE9070105F0C1F81C98FB
